:100000000C9447000C9487090C9487090C94870979
:100010000C9487090C9487090C9487090C94870920
:100020000C9413080C9487090C9487090C94870985
:100030000C9487090C9487090C9487090C94870900
:100040000C9487090C9487090C9487090C948709F0
:100050000C9487090C9487090C9487090C948709E0
:100060000C9487090C9487090C9487090C948709D0
:100070000C9487090C9487090C948709380A380E68
:10008000803804380A001312380038048000112424
:100090001FBECFEFCDBFDFE3DEBFECE7F0E040E017
:1000A00017C0B591A59135912591059107FD0CC01B
:1000B00095918591EF01F92FE82F05900D92A217E8
:1000C000B307D9F7FE0104C01D92A217B307E1F7E9
:1000D000ED38F40731F70E94B2070C946F00F894E2
:0200E000FFCF50
:1000E2004F925F926F927F928F929F92AF92BF9246
:1000F200CF92DF92EF92FF921F93CF93DF93FC0197
:10010200992324F4882799278E1B9F0B019628ECAC
:10011200289FA001299F500D112444525A4F9A0141
:10012200369527953695279536952795A5ECB0E215
:100132000E942309EC01D295C295CF70CD27DF70C2
:10014200CD2788EE93E0C89F9001C99F300DD89FBC
:10015200300D1124EA01C21BD30B36952795369533
:100162002795369527950E942309BC0172956295C1
:100172006F7067277F706727FF237CF4E1E5FAE061
:1001820080818061808381E792E0DC011197F1F741
:1001920020812F7E20830197F1F7E1E5FAE080814B
:1001A2008061808380E090E00E9475074B015C01D2
:1001B20020E030E44CE954E40E9480096B017C01A8
:1001C20020E030E040E85FE30E946E0988232CF1D2
:1001D20020E03FEF4FE757E4C701B6010E947309E1
:1001E2001816B4F420E030E040E251E4C501B40155
:1001F2000E9480090E94E4076115710599F02DE7BC
:1002020030E0C9010197F1F761507109D1F70AC0D5
:10021200C701B6010E94E40702C061E070E0CB01B1
:100222000197F1F7BE0180E090E00E9475076B0133
:100232007C0125E535E545ED5FE30E9480094B0130
:100242005C0120E030E040E85FE30E946E09882311
:100252000CF470C020E030E040EA5FE3C701B60171
:100262000E9480092B013C0120E03FEF4FE757E459
:100272000E94730918160CF045C020E030E04AE7EE
:1002820054E4C701B6010E947C094B015C0120E0E5
:1002920030E44CE954E40E9480096B017C0120E0C7
:1002A20030E040E85FE30E946E0988232CF120E0F1
:1002B2003FEF4FE757E4C701B6010E9473091816D2
:1002C200B4F420E030E040E251E4C501B4010E9400
:1002D20080090E94E4076115710569F12DE730E09C
:1002E200C9010197F1F761507109D1F724C0C70123
:1002F200B6010E94E40702C061E070E0CB01019701
:10030200F1F719C020E030E04FE753E4C501B40132
:100312000E947309181644F4C301B2010E94E40753
:10032200CB010197F1F709C0C501B4010E94E407AE
:10033200162F01C011E01A95F1F7E1E5FAE080818C
:100342008F7E808386E292E02DE730E0F9013197DB
:10035200F1F70197D9F7DF91CF911F91FF90EF90BD
:10036200DF90CF90BF90AF909F908F907F906F90D3
:060372005F904F9008951A
:100378000F931F93CF93DF938230910510F482E09F
:1003880090E0E0910238F091033820E030E0A0E0FE
:10039800B0E0309719F140815181028113814817EB
:1003A8005907C8F08417950769F4109731F0129629
:1003B8000C93129713961C9327C00093023810933E
:1003C800033822C02115310519F04217530718F4D4
:1003D8009A01BD01EF01DF01F801DBCF21153105DD
:1003E800F9F0281B390B2430310580F48A819B8170
:1003F8006115710521F0FB018283938304C080930A
:10040800023890930338FE01329644C0FE01E20F91
:10041800F31F8193919322503109288339833AC07D
:100428002091003830910138232B41F4209106386F
:1004380030910738209300383093013820910438E0
:10044800309105382115310541F42DB73EB740915B
:10045800083850910938241B350BE0910038F09189
:100468000138E217F307A0F42E1B3F0B28173907B2
:1004780078F0AC014E5F5F4F2417350748F04E0FF8
:100488005F1F40930038509301388193919302C0C5
:10049800E0E0F0E0CF01DF91CF911F910F91089537
:1004A800CF93DF93009709F481C0FC013297128241
:1004B8001382A0910238B0910338109781F42081FB
:1004C8003181820F931F209100383091013828170D
:1004D800390751F5E0930038F093013867C0ED0112
:1004E80020E030E0CE17DF0740F44A815B819E01AF
:1004F80041155105F1F0EA01F5CFC283D38340815C
:100508005181840F951FC817D90759F4888199819B
:10051800840F951F0296808391838A819B818283B1
:1005280093832115310529F4E0930238F0930338B9
:100538003DC0E901EA83FB8349915991C40FD51F56
:10054800EC17FD0761F480819181840F951F029655
:10055800E90188839983828193818A839B83E0E080
:10056800F0E012968D919C911397009719F0FD0178
:10057800DC01F7CF8D919C9111979D012E5F3F4F24
:10058800820F931F209100383091013828173907BE
:1005980069F4309729F4109202381092033802C097
:1005A80012821382A0930038B0930138DF91CF9163
:0205B8000895A4
:1005BA00CF93DF93FC01F894A18DB28D14969C9190
:1005CA001497808D8095892314968C93A48DB58D6C
:1005DA009C91838D809589238C93A48DB58D9C9154
:1005EA00838D892B8C93A48DB58D14969C91149729
:1005FA00838D8095892314968C9380E18A95F1F7EF
:10060A00A48DB58D9C91838D809589238C93A18D22
:10061A00B28D14969C911497808D892B14968C9385
:10062A007894C48DD58D8885338D8323E1F48489AC
:10063A009589A689B789408551856285738584170E
:10064A009507A607B70778F40196A11DB11D848BFB
:10065A00958BA68BB78B2885232329F484179507B6
:10066A00A607B70788F344895589668977898085FB
:10067A009185A285B38584179507A607B70708F45D
:10068A0060C0F894A48DB58D14969C911497838DAF
:10069A00892B14968C93A48DB58D9C91838D892B6F
:1006AA008C93A48DB58D14969C911497838D892B68
:1006BA0014968C93A48DB58D9C91838D80958923F6
:1006CA008C93A18DB28D14969C911497808D8095F0
:1006DA00892314968C937894C48DD58D8885338D0F
:1006EA008323E9F084899589A689B789408551854C
:1006FA006285738584179507A607B70760F5019683
:10070A00A11DB11D848B958BA68BB78B28852323BE
:10071A0031F084179507A607B70788F31CC04489E8
:10072A0055896689778980859185A285B385481719
:10073A0059076A077B0750F461E070E080E090E0B7
:10074A000EC06EEF7FEF8FEF9FEF09C06EEF7FEF66
:10075A008FEF9FEF04C06EEF7FEF8FEF9FEFDF9178
:04076A00CF9108958E
:10076E00CF93DF93EC010E9428072E853F8521153C
:10077E00310569F48C859D85009709F48DC0198A21
:10078E001A8A1B8A1C8A188A8E879F8785C0698958
:10079E007A896F5F7F4F698B7A8BAC85BD85109799
:1007AE0009F451C0A0FD6EC0CD0140E050E002C082
:1007BE0080FD5BC0969587954F5F5F4F0097C1F7A1
:1007CE0066C080FF04C055C0C901E0E0F0E0969518
:1007DE00879531960097A9F7EFEFFFEF4AC081E0BA
:1007EE00888BEF89F88D309709F00995198A1A8A46
:1007FE001B8A1C8A23C040E050E080E090E0A0FD00
:10080E00AC01B695A79501961097C9F7E0E0F0E018
:10081E0080E090E020FDFC0136952795019621158C
:10082E003105C1F7E417F50774F482E0888BEF8980
:10083E00F88D309709F00995198A1A8A8C859D854D
:10084E008E879F8729C08B899C8901968B8B9C8B69
:10085E002D893E8928173907FCF4198A1A8A1E86B3
:10086E001F86188A1B8A1C8A17C020FFADCFE0E0B6
:10087E00F0E04E175F070CF4B2CF40E050E080E09E
:10088E0090E0BDCF20FDB7CF40E050E09DCF20FDE2
:0E089E00A6CF4FEF5FEF98CFDF91CF91089577
:1008AC00CF92DF92EF92FF920F931F93CF93DF9330
:1008BC00FC01148A158A168A178A662309F471C0FA
:1008CC002081318133230CF470C0D62F8C01C0E011
:1008DC00C8010E94DD0299230CF46BC0CF5FDC13BE
:1008EC00F7CF0E943209F801C088D188E288F388DA
:1008FC00DC01CB018C199D09AE09BF09C484D584D8
:10090C00E684F784C816D906EA06FB0660F5628110
:10091C0073818481958124893589261B370BE901E4
:10092C00DD2324F4CC27DD27C21BD30B0E947507D3
:10093C002DEC3CEC4CEC5DE30E9480090E944509D7
:10094C00C617D70784F48FEF9FEFAFEFBFE0F80126
:10095C0082839383A483B5830E943209F801608B50
:10096C00718B828B938BF80184899589A689B789C1
:10097C00C280D380E480F5808C159D05AE05BF0543
:10098C0020F482839383A483B583F80102811381BD
:10099C0024813581BC01CD01601B710B820B930B43
:1009AC000CC060E070E0CB0108C060E070E0CB01EF
:1009BC0004C06EEF7FEF8FEF9FEFDF91CF911F9110
:0C09CC000F91FF90EF90DF90CF90089506
:1009D8003F924F925F926F927F928F929F92AF92C7
:1009E800BF92CF92DF92EF92FF920F931F93CF9314
:1009F800DF93CDB7DEB74C883D88CF88D88CE98C9B
:100A0800FA8C89E190E00E94BC013C015E018BE117
:100A1800A80EB11CD30112964C926EE170E0842DA1
:100A280090E00E948708F3018083918314861586DD
:100A3800168617864420E9F0812C912C512CF5015B
:100A4800D3010D911C91080D191D6081B2E0AB0E08
:100A5800B11C832D0E947A05FC019EE1D80101900A
:100A68000D929A95E1F75394EEE18E0E911C451084
:100A7800E6CFD30150961C92509751961D921C9226
:100A8800529720E030E0A901C701B6010E946E0923
:100A980088231CF4C12CD12C7601F301C086D186A1
:100AA800E286F38614821582168217828E898383E2
:100AB800178A108E138A148A88E290E0858B968BA9
:100AC800C3010E94CE06C301DF91CF911F910F9100
:100AD800FF90EF90DF90CF90BF90AF909F908F9056
:0C0AE8007F906F905F904F903F900895BA
:100AF4000F931F93CF93DF93082F162F6EE170E0AF
:100B040081E090E00E948708EC0181E090E0888316
:100B1400998326E331E02E833F8346ED54EF62E070
:100B240070E0488759876A877B8740E25EE460E02B
:100B340070E04C875D876E877F87502F5770052E36
:100B440002C0880F991F0A94E2F7888F02950F70EC
:100B540019F020E234E002C020E034E0298F3A8F1B
:100B6400412F477081E090E0042E02C0880F991F46
:100B74000A94E2F78B8F12951F7019F080E294E0CB
:100B840002C080E094E08C8F9D8FF901E50FF11D88
:100B9400108AFC01E40FF11D108AE98DFA8D908111
:100BA400888D892B8083EC8DFD8D90818B8D809534
:100BB40089238083E98DFA8D9481888D809589239A
:100BC40084838FEF9FEFAFEFBFE08A839B83AC8377
:100BD400BD830E943209688B798B8A8B9B8BCE01F3
:0A0BE400DF91CF911F910F9108954A
:100BEE000E94530958F00E944C0940F029F45F3FCF
:100BFE0029F00C94680951110C945B090C9484092A
:100C0E000E94650868F39923B1F3552391F3951B60
:100C1E00550BBB27AA2762177307840738F09F5F0F
:100C2E005F4F220F331F441FAA1FA9F335D00E2E7C
:100C3E003AF0E0E832D091505040E695001CCAF7E9
:100C4E002BD0FE2F29D0660F771F881FBB1F2617AC
:100C5E0037074807AB07B0E809F0BB0B802DBF0183
:100C6E00FF2793585F4F3AF09E3F510578F00C9452
:100C7E0068090C945B095F3FE4F3983ED4F38695C4
:100C8E0077956795B795F7959F5FC9F7880F911D73
:100C9E009695879597F90895E1E0660F771F881F5F
:100CAE00BB1F621773078407BA0720F0621B730B12
:0C0CBE00840BBA0BEE1F88F7E095089538
:100CCA000E944C0938F00E94530920F0952311F034
:100CDA000C9468090C94840911240C945B090E94F1
:100CEA00650870F3959FC1F3950F50E0551F629FF9
:100CFA00F001729FBB27F00DB11D639FAA27F00D6B
:100D0A00B11DAA1F649F6627B00DA11D661F829F91
:100D1A002227B00DA11D621F739FB00DA11D621F76
:100D2A00839FA00D611D221F749F3327A00D611D93
:100D3A00231F849F600D211D822F762F6A2F112475
:100D4A009F5750409AF0F1F088234AF0EE0FFF1FA8
:100D5A00BB1F661F771F881F91505040A9F79E3FFF
:100D6A00510580F00C9468090C945B095F3FE4F329
:100D7A00983ED4F3869577956795B795F795E79555
:100D8A009F5FC1F7FE2B880F911D9695879597F95E
:020D9A000895BA
:100D9C00BF92CF92DF92EF92FF920F931F93CF935C
:100DAC00DF938C010F2EF6E4BF2EF02DC12CD12C2D
:100DBC007601DEE117C0C0E0F8018081918163818A
:100DCC00DC9F800D911D11240E945604C60ED71E67
:100DDC00E81EF91ECF5FF8018281C81768F3BA9438
:100DEC00BB2029F0F80182818111E5CFF8CFC70132
:100DFC00B6010E947707F80120853185428553851D
:100E0C000E9480096B017C01F801628170E080E036
:100E1C0090E00E9475079B01AC01C701B6010E94CE
:100E2C007C090E944509F801648375838683978346
:100E3C00DF91CF911F910F91FF90EF90DF90CF90AA
:040E4C00BF900895B6
:100E50008F929F92AF92BF92CF92DF92EF92FF92CA
:100E60000F931F93CF93DF938C01FC018281882322
:100E700051F1E12CF12CC0E0DEE1CC24C394D12C63
:100E8000F801808191816381DC9F800D911D112487
:100E90000E945604F80184809580A680B78086164B
:100EA0009706A806B9064CF4C6010C2E02C0880F9E
:100EB000991F0A94E2F7E82AF92ACF5FF8018281A4
:100EC000C817F0F202C0E12CF12CF801E486F58697
:100ED000DF91CF911F910F91FF90EF90DF90CF9016
:0A0EE000BF90AF909F908F9008958F
:100EEA00E89409C097FB3EF49095809570956195BA
:100EFA007F4F8F4F9F4F9923A9F0F92F96E9BB2770
:100F0A009395F695879577956795B795F111F8CFEB
:100F1A00FAF4BB0F11F460FF1BC06F5F7F4F8F4F56
:100F2A009F4F16C0882311F096E911C0772321F04C
:100F3A009EE8872F762F05C0662371F096E8862FE4
:100F4A0070E060E02AF09A95660F771F881FDAF73B
:0A0F5A00880F9695879597F9089582
:100F64000E943D090E94BD081F9284E08F931F9246
:100F740097E09F931F9295E09F931F9296E09F9313
:100F84009EE39F9399E19F9399E99F939AE99F9395
:100F940098E09F9390E29F938F930E94EC04EC015E
:100FA40064ED78E00E9478098DB79EB70F968DBFE7
:100FB4009EBF04EC19E0CE010E94B703C80101975B
:040FC400F1F7F9CF79
:100FC8000E946D0888F09F5798F0B92F9927B7515C
:100FD800B0F0E1F0660F771F881F991F1AF0BA95D5
:100FE800C9F714C0B13091F00E945A09B1E00895D0
:100FF8000C945A09672F782F8827B85F39F0B93FC2
:10100800CCF3869577956795B395D9F73EF4909587
:0E1018008095709561957F4F8F4F9F4F089583
:101026001F920F920FB60F9211248F939F93AF9337
:10103600BF93EF93FF9380910A3890910B38A0915C
:101046000C38B0910D380196A11DB11D80930A3858
:1010560090930B38A0930C38B0930D38E0E0FAE08B
:10106600838581608387FF91EF91BF91AF919F91B7
:0C1076008F910F900FBE0F901F901895E7
:10108200990F0008550FAA0BE0E8FEEF1616170697
:10109200E807F907C0F012161306E407F50798F0FF
:1010A200621B730B840B950B39F40A2661F0232B18
:1010B200242B252B21F408950A2609F4A140A69594
:0810C2008FEF811D811D0895CF
:1010CA0057FD9058440F551F59F05F3F71F04795EF
:1010DA00880F97FB991F61F09F3F79F087950895D4
:1010EA00121613061406551FF2CF4695F1DF08C0F3
:1010FA00161617061806991FF1CF86957105610510
:04110A0008940895A8
:10110E000F931F93CF93DF93869F8001879F100DC0
:10111E00969F100D1124C8010E94BC01EC0100978E
:10112E0029F0A80160E070E00E946109CE01DF9114
:08113E00CF911F910F9108955C
:10114600F894E0E0FAE080818E7F80838CE08583EE
:1011560091E095838081817F808380818860808310
:1011660028E331E026A337A39287808181608083BC
:0411760078940895CC
:10117A00F894E0E0F4E08081886080838481877F4E
:10118A008483E0E5FAE087E0818381E4848780E272
:0E119A0085871286138683E0808378940895FB
:1011A800282F86E490E0861B970B63E070E00E948E
:1011B800EA08213039F488279927861B970B0E9463
:0C11C80071000895CB010E947100089591
:1011D40097FB072E16F4009407D077FD09D00E94E0
:1011E400FE0807FC05D03EF4909581959F4F089525
:0811F400709561957F4F08958D
:1011FC00AA1BBB1B51E107C0AA1FBB1FA617B70731
:10120C0010F0A61BB70B881F991F5A95A9F780954C
:08121C009095BC01CD0108957D
:10122400092E0394000C11F4882352F0BB0F40F4F0
:10123400BF2B11F460FF04C06F5F7F4F8F4F9F4F30
:0212440008950B
:10124600A29FB001B39FC001A39F700D811D112401
:0E125600911DB29F700D811D1124911D0895F0
:10126400F89460910A3870910B3880910C38909101
:061274000D387894089586
:10127A0088ED84BF83E0809361000E94A3080895EB
:0E128A000E94E4076894B1110C945B0908956A
:0E12980000240A941616170618060906089573
:0E12A60000240A941216130614060506089575
:0E12B400E894BB2766277727CB0197F90895AA
:0E12C200DC0101C06D9341505040E0F70895EB
:0C12D00097F99F6780E870E060E00895E7
:0A12DC000E94410808F481E0089523
:0A12E6000E94410808F48FEF0895FC
:0812F000FC01678B708F08956B
:0812F8000E9407060C94120984
:081300000E9474060C9412090E
:061308009FEF80EC089548
:04130E000C9400003B
:0613120000000E3820006F
:00000001FF
